{
  "contractName": "SportsStat",
  "abi": [
    {
      "constant": true,
      "inputs": [],
      "name": "statDelim",
      "outputs": [
        {
          "name": "",
          "type": "string"
        }
      ],
      "payable": false,
      "stateMutability": "view",
      "type": "function"
    },
    {
      "constant": true,
      "inputs": [],
      "name": "runDelim",
      "outputs": [
        {
          "name": "",
          "type": "string"
        }
      ],
      "payable": false,
      "stateMutability": "view",
      "type": "function"
    },
    {
      "constant": true,
      "inputs": [
        {
          "name": "",
          "type": "address"
        },
        {
          "name": "",
          "type": "uint256"
        }
      ],
      "name": "addressToStats",
      "outputs": [
        {
          "name": "eventName",
          "type": "string"
        },
        {
          "name": "timestamp",
          "type": "string"
        },
        {
          "name": "place",
          "type": "string"
        },
        {
          "name": "distance",
          "type": "string"
        },
        {
          "name": "time",
          "type": "string"
        },
        {
          "name": "description",
          "type": "string"
        }
      ],
      "payable": false,
      "stateMutability": "view",
      "type": "function"
    },
    {
      "constant": false,
      "inputs": [],
      "name": "renounceOwnership",
      "outputs": [],
      "payable": false,
      "stateMutability": "nonpayable",
      "type": "function"
    },
    {
      "constant": true,
      "inputs": [],
      "name": "owner",
      "outputs": [
        {
          "name": "",
          "type": "address"
        }
      ],
      "payable": false,
      "stateMutability": "view",
      "type": "function"
    },
    {
      "constant": true,
      "inputs": [],
      "name": "isOwner",
      "outputs": [
        {
          "name": "",
          "type": "bool"
        }
      ],
      "payable": false,
      "stateMutability": "view",
      "type": "function"
    },
    {
      "constant": false,
      "inputs": [
        {
          "name": "newOwner",
          "type": "address"
        }
      ],
      "name": "transferOwnership",
      "outputs": [],
      "payable": false,
      "stateMutability": "nonpayable",
      "type": "function"
    },
    {
      "anonymous": false,
      "inputs": [
        {
          "indexed": true,
          "name": "previousOwner",
          "type": "address"
        },
        {
          "indexed": true,
          "name": "newOwner",
          "type": "address"
        }
      ],
      "name": "OwnershipTransferred",
      "type": "event"
    },
    {
      "constant": false,
      "inputs": [
        {
          "name": "eventName",
          "type": "string"
        },
        {
          "name": "timestamp",
          "type": "string"
        },
        {
          "name": "place",
          "type": "string"
        },
        {
          "name": "distance",
          "type": "string"
        },
        {
          "name": "time",
          "type": "string"
        },
        {
          "name": "description",
          "type": "string"
        }
      ],
      "name": "createRunStat",
      "outputs": [],
      "payable": false,
      "stateMutability": "nonpayable",
      "type": "function"
    },
    {
      "constant": true,
      "inputs": [],
      "name": "getRunStats",
      "outputs": [
        {
          "name": "",
          "type": "string"
        }
      ],
      "payable": false,
      "stateMutability": "view",
      "type": "function"
    }
  ],
  "bytecode": "0x60806040526040805190810160405280600381526020017f2573250000000000000000000000000000000000000000000000000000000000815250600290805190602001906200005192919062000162565b506040805190810160405280600381526020017f2572250000000000000000000000000000000000000000000000000000000000815250600390805190602001906200009f92919062000162565b50336000806101000a81548173ffffffffffffffffffffffffffffffffffffffff021916908373ffffffffffffffffffffffffffffffffffffffff1602179055506000809054906101000a900473ffffffffffffffffffffffffffffffffffffffff1673ffffffffffffffffffffffffffffffffffffffff16600073ffffffffffffffffffffffffffffffffffffffff167f8be0079c531659141344cd1fd0a4f28419497f9722a3daafe3b4186f6b6457e060405160405180910390a362000211565b828054600181600116156101000203166002900490600052602060002090601f016020900481019282601f10620001a557805160ff1916838001178555620001d6565b82800160010185558215620001d6579182015b82811115620001d5578251825591602001919060010190620001b8565b5b509050620001e59190620001e9565b5090565b6200020e91905b808211156200020a576000816000905550600101620001f0565b5090565b90565b61171a80620002216000396000f300608060405260043610610099576000357c0100000000000000000000000000000000000000000000000000000000900463ffffffff1680632040b5841461009e5780632d60f09e1461012e5780633504ee1a146101be5780636b3967521461024e578063715018a61461053057806384fb19e3146105475780638da5cb5b1461070e5780638f32d59b14610765578063f2fde38b14610794575b600080fd5b3480156100aa57600080fd5b506100b36107d7565b6040518080602001828103825283818151815260200191508051906020019080838360005b838110156100f35780820151818401526020810190506100d8565b50505050905090810190601f1680156101205780820380516001836020036101000a031916815260200191505b509250505060405180910390f35b34801561013a57600080fd5b50610143610d69565b6040518080602001828103825283818151815260200191508051906020019080838360005b83811015610183578082015181840152602081019050610168565b50505050905090810190601f1680156101b05780820380516001836020036101000a031916815260200191505b509250505060405180910390f35b3480156101ca57600080fd5b506101d3610e07565b6040518080602001828103825283818151815260200191508051906020019080838360005b838110156102135780820151818401526020810190506101f8565b50505050905090810190601f1680156102405780820380516001836020036101000a031916815260200191505b509250505060405180910390f35b34801561025a57600080fd5b50610299600480360381019080803573ffffffffffffffffffffffffffffffffffffffff16906020019092919080359060200190929190505050610ea5565b6040518080602001806020018060200180602001806020018060200187810387528d818151815260200191508051906020019080838360005b838110156102ed5780820151818401526020810190506102d2565b50505050905090810190601f16801561031a5780820380516001836020036101000a031916815260200191505b5087810386528c818151815260200191508051906020019080838360005b83811015610353578082015181840152602081019050610338565b50505050905090810190601f1680156103805780820380516001836020036101000a031916815260200191505b5087810385528b818151815260200191508051906020019080838360005b838110156103b957808201518184015260208101905061039e565b50505050905090810190601f1680156103e65780820380516001836020036101000a031916815260200191505b5087810384528a818151815260200191508051906020019080838360005b8381101561041f578082015181840152602081019050610404565b50505050905090810190601f16801561044c5780820380516001836020036101000a031916815260200191505b50878103835289818151815260200191508051906020019080838360005b8381101561048557808201518184015260208101905061046a565b50505050905090810190601f1680156104b25780820380516001836020036101000a031916815260200191505b50878103825288818151815260200191508051906020019080838360005b838110156104eb5780820151818401526020810190506104d0565b50505050905090810190601f1680156105185780820380516001836020036101000a031916815260200191505b509c5050505050505050505050505060405180910390f35b34801561053c57600080fd5b5061054561128d565b005b34801561055357600080fd5b5061070c600480360381019080803590602001908201803590602001908080601f0160208091040260200160405190810160405280939291908181526020018383808284378201915050505050509192919290803590602001908201803590602001908080601f0160208091040260200160405190810160405280939291908181526020018383808284378201915050505050509192919290803590602001908201803590602001908080601f0160208091040260200160405190810160405280939291908181526020018383808284378201915050505050509192919290803590602001908201803590602001908080601f0160208091040260200160405190810160405280939291908181526020018383808284378201915050505050509192919290803590602001908201803590602001908080601f0160208091040260200160405190810160405280939291908181526020018383808284378201915050505050509192919290803590602001908201803590602001908080601f016020809104026020016040519081016040528093929190818152602001838380828437820191505050505050919291929050505061135f565b005b34801561071a57600080fd5b506107236114b0565b604051808273ffffffffffffffffffffffffffffffffffffffff1673ffffffffffffffffffffffffffffffffffffffff16815260200191505060405180910390f35b34801561077157600080fd5b5061077a6114d9565b604051808215151515815260200191505060405180910390f35b3480156107a057600080fd5b506107d5600480360381019080803573ffffffffffffffffffffffffffffffffffffffff169060200190929190505050611530565b005b606080600080600091505b600160003373ffffffffffffffffffffffffffffffffffffffff1673ffffffffffffffffffffffffffffffffffffffff16815260200190815260200160002080549050821015610d6057600160003373ffffffffffffffffffffffffffffffffffffffff1673ffffffffffffffffffffffffffffffffffffffff1681526020019081526020016000208281548110151561087857fe5b906000526020600020906006020190508260038260000160028460010160028660020160028860030160028a60040160028c600501604051602001808e805190602001908083835b6020831015156108e557805182526020820191506020810190506020830392506108c0565b6001836020036101000a0380198251168184511680821785525050505050509050018d80546001816001161561010002031660029004801561095e5780601f1061093c57610100808354040283529182019161095e565b820191906000526020600020905b81548152906001019060200180831161094a575b50508c8054600181600116156101000203166002900480156109b75780601f106109955761010080835404028352918201916109b7565b820191906000526020600020905b8154815290600101906020018083116109a3575b50508b805460018160011615610100020316600290048015610a105780601f106109ee576101008083540402835291820191610a10565b820191906000526020600020905b8154815290600101906020018083116109fc575b50508a805460018160011615610100020316600290048015610a695780601f10610a47576101008083540402835291820191610a69565b820191906000526020600020905b815481529060010190602001808311610a55575b505089805460018160011615610100020316600290048015610ac25780601f10610aa0576101008083540402835291820191610ac2565b820191906000526020600020905b815481529060010190602001808311610aae575b505088805460018160011615610100020316600290048015610b1b5780601f10610af9576101008083540402835291820191610b1b565b820191906000526020600020905b815481529060010190602001808311610b07575b505087805460018160011615610100020316600290048015610b745780601f10610b52576101008083540402835291820191610b74565b820191906000526020600020905b815481529060010190602001808311610b60575b505086805460018160011615610100020316600290048015610bcd5780601f10610bab576101008083540402835291820191610bcd565b820191906000526020600020905b815481529060010190602001808311610bb9575b505085805460018160011615610100020316600290048015610c265780601f10610c04576101008083540402835291820191610c26565b820191906000526020600020905b815481529060010190602001808311610c12575b505084805460018160011615610100020316600290048015610c7f5780601f10610c5d576101008083540402835291820191610c7f565b820191906000526020600020905b815481529060010190602001808311610c6b575b505083805460018160011615610100020316600290048015610cd85780601f10610cb6576101008083540402835291820191610cd8565b820191906000526020600020905b815481529060010190602001808311610cc4575b505082805460018160011615610100020316600290048015610d315780601f10610d0f576101008083540402835291820191610d31565b820191906000526020600020905b815481529060010190602001808311610d1d575b50509d5050505050505050505050505050604051602081830303815290604052925081806001019250506107e2565b82935050505090565b60028054600181600116156101000203166002900480601f016020809104026020016040519081016040528092919081815260200182805460018160011615610100020316600290048015610dff5780601f10610dd457610100808354040283529160200191610dff565b820191906000526020600020905b815481529060010190602001808311610de257829003601f168201915b505050505081565b60038054600181600116156101000203166002900480601f016020809104026020016040519081016040528092919081815260200182805460018160011615610100020316600290048015610e9d5780601f10610e7257610100808354040283529160200191610e9d565b820191906000526020600020905b815481529060010190602001808311610e8057829003601f168201915b505050505081565b600160205281600052604060002081815481101515610ec057fe5b906000526020600020906006020160009150915050806000018054600181600116156101000203166002900480601f016020809104026020016040519081016040528092919081815260200182805460018160011615610100020316600290048015610f6d5780601f10610f4257610100808354040283529160200191610f6d565b820191906000526020600020905b815481529060010190602001808311610f5057829003601f168201915b505050505090806001018054600181600116156101000203166002900480601f01602080910402602001604051908101604052809291908181526020018280546001816001161561010002031660029004801561100b5780601f10610fe05761010080835404028352916020019161100b565b820191906000526020600020905b815481529060010190602001808311610fee57829003601f168201915b505050505090806002018054600181600116156101000203166002900480601f0160208091040260200160405190810160405280929190818152602001828054600181600116156101000203166002900480156110a95780601f1061107e576101008083540402835291602001916110a9565b820191906000526020600020905b81548152906001019060200180831161108c57829003601f168201915b505050505090806003018054600181600116156101000203166002900480601f0160208091040260200160405190810160405280929190818152602001828054600181600116156101000203166002900480156111475780601f1061111c57610100808354040283529160200191611147565b820191906000526020600020905b81548152906001019060200180831161112a57829003601f168201915b505050505090806004018054600181600116156101000203166002900480601f0160208091040260200160405190810160405280929190818152602001828054600181600116156101000203166002900480156111e55780601f106111ba576101008083540402835291602001916111e5565b820191906000526020600020905b8154815290600101906020018083116111c857829003601f168201915b505050505090806005018054600181600116156101000203166002900480601f0160208091040260200160405190810160405280929190818152602001828054600181600116156101000203166002900480156112835780601f1061125857610100808354040283529160200191611283565b820191906000526020600020905b81548152906001019060200180831161126657829003601f168201915b5050505050905086565b6112956114d9565b15156112a057600080fd5b600073ffffffffffffffffffffffffffffffffffffffff166000809054906101000a900473ffffffffffffffffffffffffffffffffffffffff1673ffffffffffffffffffffffffffffffffffffffff167f8be0079c531659141344cd1fd0a4f28419497f9722a3daafe3b4186f6b6457e060405160405180910390a360008060006101000a81548173ffffffffffffffffffffffffffffffffffffffff021916908373ffffffffffffffffffffffffffffffffffffffff160217905550565b600160003373ffffffffffffffffffffffffffffffffffffffff1673ffffffffffffffffffffffffffffffffffffffff16815260200190815260200160002060c06040519081016040528088815260200187815260200186815260200185815260200184815260200183815250908060018154018082558091505090600182039060005260206000209060060201600090919290919091506000820151816000019080519060200190611413929190611649565b506020820151816001019080519060200190611430929190611649565b50604082015181600201908051906020019061144d929190611649565b50606082015181600301908051906020019061146a929190611649565b506080820151816004019080519060200190611487929190611649565b5060a08201518160050190805190602001906114a4929190611649565b50505050505050505050565b60008060009054906101000a900473ffffffffffffffffffffffffffffffffffffffff16905090565b60008060009054906101000a900473ffffffffffffffffffffffffffffffffffffffff1673ffffffffffffffffffffffffffffffffffffffff163373ffffffffffffffffffffffffffffffffffffffff1614905090565b6115386114d9565b151561154357600080fd5b61154c8161154f565b50565b600073ffffffffffffffffffffffffffffffffffffffff168173ffffffffffffffffffffffffffffffffffffffff161415151561158b57600080fd5b8073ffffffffffffffffffffffffffffffffffffffff166000809054906101000a900473ffffffffffffffffffffffffffffffffffffffff1673ffffffffffffffffffffffffffffffffffffffff167f8be0079c531659141344cd1fd0a4f28419497f9722a3daafe3b4186f6b6457e060405160405180910390a3806000806101000a81548173ffffffffffffffffffffffffffffffffffffffff021916908373ffffffffffffffffffffffffffffffffffffffff16021790555050565b828054600181600116156101000203166002900490600052602060002090601f016020900481019282601f1061168a57805160ff19168380011785556116b8565b828001600101855582156116b8579182015b828111156116b757825182559160200191906001019061169c565b5b5090506116c591906116c9565b5090565b6116eb91905b808211156116e75760008160009055506001016116cf565b5090565b905600a165627a7a72305820ce7439e81c144c119d074c9fee73c72fd45e34ce0859697fde812fafe18194a40029",
  "source": "pragma solidity ^0.4.23;\n\nimport \"openzeppelin-solidity/contracts/ownership/Ownable.sol\";\n\ncontract SportsStat is Ownable {\n    // TODO: Break into more models\n    struct RunStat {\n        string eventName;\n        string timestamp;\n        string place;\n        string distance;\n        string time;\n        string description;\n    }\n\n    // Need to make this not public\n    mapping(address => RunStat[]) public addressToStats;\n    string public statDelim = \"%s%\";\n    string public runDelim = \"%r%\";\n\n    function createRunStat(string eventName, string timestamp, string place, string distance, string time, string description) public {\n        // TODO: Not let this be called?\n        addressToStats[msg.sender].push(RunStat(eventName, timestamp, place, distance, time, description));\n    }\n\n    function getRunStats() public view returns (string) {\n        string memory encodedRunStats;\n//        RunStat[] storage runStats = addressToStats[msg.sender];\n        for (uint i=0; i<addressToStats[msg.sender].length; i++) {\n            RunStat storage stat = addressToStats[msg.sender][i];\n            encodedRunStats = string(abi.encodePacked(encodedRunStats, runDelim, stat.eventName, statDelim, stat.timestamp, statDelim, stat.place, statDelim, stat.distance, statDelim, stat.time, statDelim, stat.description));\n        }\n        return encodedRunStats;\n    }\n}\n",
  "sourcePath": "/Users/andrewr/Desktop/SportsStats/smart_contracts/contracts/SportsStat.sol",
  "compiler": {
    "name": "solc",
    "version": "0.4.24+commit.e67f0147.Emscripten.clang"
  },
  "schemaVersion": "2.0.1",
  "updatedAt": "2018-11-06T23:16:56.684Z"
}